:02000000A32833
:10000800FF00030E8301B2000A08B1008A017008DC
:10001800A0000B1D21280B11A40A0319A50A0C30F6
:10002800810000302506031D1B2820302406031DEF
:100038002128A401A5010130B0002008F0003108F2
:0C0048008A00320E8300FF0E7F0E0900BC
:1000540083120313F8010830FC00700DF80D7408C6
:10006400F80203183728F8070310F00DFC0B2F28AB
:02007400080082
:0E007600831203132F088A002E088200080050
:100084003B208A110A128000840AAE0A0319AF0ABF
:08009400F003031D42280800DF
:10009C000A3083120313F4003308F0002A20780886
:1000AC00F0007008B6003608AD000A30F4003308D2
:1000BC00F0002A207008AB000A30F4003408F0007D
:1000CC002A207808F0007008B5003508AA000A301C
:1000DC00F4003408F0002A207008AC0005308700CA
:1000EC003508F000F00D7010F00D7010F00D701060
:1000FC00F00D70107008360486001330FC002D30A3
:10010C00FD00FD0B8728FC0B87280A3087002C0884
:10011C00F000F00D7010F00D7010F00D7010F00D6F
:10012C00701070082B0486001330FC002D30FD007D
:0A013C00FD0B9E28FC0B9E28080016
:1001460083120313A1011830A200A301A401A50183
:100156000130A6001530A700A801A9018316860163
:10016600831286018316870183128701C0308316A6
:100176008800831288018B170130B0000730831680
:1001860081000C30831281008B16881BDC283430EA
:10019600FC00F130FD00FD0BCE28FC0BCE28000044
:1001A6000000881BD728D42829080130031D0030F9
:1001B600A9002908031905292708B3002208B40055
:1001C6004E20081B04293430FC00F130FD00FD0BE5
:1001D600EA28FC0BEA2800000000081BF328F02898
:1001E6002108003A031DFA280130A1000029210840
:1001F600023A031D00290330A100A901B001013014
:10020600A600AA292708B3002208B4004E20300809
:100216000319AA29B0019A29260803191B291530A2
:10022600A7000030A8001830A2000030A300A601E5
:100236000C3088000130A702031CA8030130A2027B
:10024600031CA30300302806031D2B2900302706B4
:10025600031D31290130A1000130A600AA29260874
:1002660003193E290430A7000030A8000430A2007C
:100276000030A300A6010A3088000130A702031C43
:10028600A8030130A202031CA30300302806031DA5
:100296004E2900302706031D54290230A1000130E3
:1002A600A600AA292608031961291030A7000030E4
:1002B600A8000D30A2000030A300A601213088005E
:1002C6000130A702031CA8030130A202031CA303EA
:1002D60000302306031D712900302206031D7729ED
:1002E6000330A1000130A600AA2926080319842993
:1002F6000430A7000030A8000430A2000030A3009C
:10030600A601113088000130A702031CA8030130A2
:10031600A202031CA30300302806031D9429003003
:100326002706031D9929A1010130A600AA29210843
:10033600003A03190F292108013A03193229210825
:10034600023A031955292108033A03197829C828BE
:02035600AB29D1
:02400E004A2F37
:00000001FF
